{
  "contractName": "Simple",
  "abi": [
    {
      "constant": true,
      "inputs": [
        {
          "name": "n",
          "type": "uint256"
        }
      ],
      "name": "calculate",
      "outputs": [
        {
          "name": "",
          "type": "uint256"
        }
      ],
      "payable": false,
      "stateMutability": "pure",
      "type": "function"
    },
    {
      "inputs": [],
      "payable": false,
      "stateMutability": "nonpayable",
      "type": "constructor"
    }
  ],
  "bytecode": "0x6060604052341561000f57600080fd5b6101bd8061001e6000396000f300606060405260043610610041576000357c0100000000000000000000000000000000000000000000000000000000900463ffffffff168063b9d92de814610046575b600080fd5b341561005157600080fd5b610067600480803590602001909190505061007d565b6040518082815260200191505060405180910390f35b6000806000839150600090505b600182111561011357816100bb60026100ad60028661011d90919063ffffffff16565b61013890919063ffffffff16565b14156100dc576100d560028361011d90919063ffffffff16565b9150610106565b61010360016100f560038561013890919063ffffffff16565b61017390919063ffffffff16565b91505b808060010191505061008a565b8092505050919050565b600080828481151561012b57fe5b0490508091505092915050565b600080600084141561014d576000915061016c565b828402905082848281151561015e57fe5b0414151561016857fe5b8091505b5092915050565b600080828401905083811015151561018757fe5b80915050929150505600a165627a7a72305820bb28910d3ea6dd250415e65b59825354cba73adcc6f9bc16c8d41d1c068d83e20029",
  "source": "pragma solidity ^0.4.18;\r\n\r\nimport \"./SafeMath.sol\";\r\n\r\ncontract Simple {\r\n\r\n  using SafeMath for uint;\r\n\r\n  function Simple() public {\r\n  }\r\n\r\n  function calculate(uint n) public pure returns (uint) {\r\n\tuint number = n;\r\n\tuint iterations = 0;\r\n\twhile (number > 1) {\r\n\t\tif (number.div(2).mul(2) == number) {\r\n\t\t\tnumber = number.div(2);\r\n\t\t} else {\r\n\t\t\tnumber = number.mul(3).add(1);\r\n\t\t}\r\n\t\titerations ++;\r\n\t}\r\n\treturn iterations;\r\n  }\r\n}\r\n",
  "sourcePath": "D:\\src\\cloud\\evm-breakpoints\\examples\\truffle\\contracts\\Simple.sol",
  "compiler": {
    "name": "solc",
    "version": "0.4.18+commit.9cf6e910.Emscripten.clang"
  },
  "schemaVersion": "1.0.1",
  "updatedAt": "2017-11-21T17:43:47.520Z"
}